:020000040800F2
:100000000080012055300008893000088930000840
:10001000893000088930000889300008000000009D
:10002000000000000000000000000000050C0008B7
:100030008930000800000000AB0C00080B0D000820
:1000400089300008893000088930000889300008AC
:10005000893000088930000889300008893000089C
:10006000893000088930000889300008893000088C
:10007000893000088930000889300008893000087C
:10008000893000088930000889300008000000002D
:10009000000000000000000000000000893000089F
:1000A000893000088930000889300008893000084C
:1000B000893000088930000889300008893000083C
:1000C000893000088930000889300008893000082C
:1000D00089300008893000088930000800000000DD
:1000E00089300008893000088930000800000000CD
:1000F000000000000000000000000000893000083F
:1001000000000000893000088930000889300008AC
:1001100000000000000000000000000000000000DF
:1001200089300008893000088930000889300008CB
:1001300089300008000000000000000000000000FE
:1001400000000000000000000000000089300008EE
:10015000893000088930000889300008893000089B
:10016000893000088930000800000000000000000D
:10017000000000000000000000000000000000007F
:1001800000000000893000080000000000000000AE
:100190008930000810B5054C237833B9044B13B1EE
:1001A0000448AFF300800123237010BD780B0020BA
:1001B0000000000048DC00080C4B43B10C480D491E
:1001C00010B5AFF300800C48036823B910BD0A488E
:1001D000036833B97047094B002BF7D0BDE81040D6
:1001E0001847064B002BF5D0184700BF0000000051
:1001F00048DC00087C0B0020740B0020000000008D
:10020000154B002B08BF134B9D46A3F5803A0021E8
:100210008B460F461348144A121A06F087FA0F4B02
:10022000002B00D098470E4B002B00D098470020A1
:10023000002104000D000D48002802D00C4802F0F7
:100240009AFB06F06BF82000290002F0AFFC02F0E8
:100250008FFB00BF000008000080012000000000AC
:100260009D2B0008780B00207423002077290008BC
:10027000000000002DE9F04100F10C051C260446A9
:100280008846174600213246284606F04FFA414676
:10029000284604F1280504F001FF324600212846D3
:1002A00006F044FA3946284604F0E5FE04F1480019
:1002B00004F0EFFD024805F099F92046BDE8F08111
:1002C000CDCCCC3D10B50446044B40F8B83BD4F837
:1002D000C4300BB19B689847204610BDF8D6000883
:1002E00010B50446FFF7EEFF204602F07FFB2046E4
:1002F00010BD0000F7B5044600F10C054FF0FF30CB
:1003000004F1E80600901C27284604F0F1FC3A4668
:100310000021304606F00AFABDF92010304604F5F7
:10032000827604F0BBFE3A460021304606F0FEF924
:10033000BDF92410304604F0B1FE00222846082101
:1003400004F066FC2846084904F084FCD4F8F03038
:10035000D4F8E8201A60D4F80421D4F80C312046EF
:100360001A6003B0F0BD00BF00127A0010B5044659
:100370000C30FFF7A7FF204610BDD0F8E83070B56D
:100380001646D0F8F4201B0400F10C051360044657
:1003900001F07E01284604F079FC3146284604F03D
:1003A00075FCD4F8F030D4F8E8201A6070BD38B588
:1003B000D0F8E830D0F8F4201B0400F10C05044616
:1003C000136041F08001284604F060FC00212846BB
:1003D00004F05CFCD4F8F030D4F8E8201A60C0B225
:1003E00038BD10B528210446FFF7E1FF00F00303F4
:1003F000032B08D040F00302D2B220462821BDE8EA
:100400001040FFF7BABF10BDD0F80431D0F810216A
:1004100010B51B04044613600A2005F0F5F8D4F863
:100420000C31D4F804211A60322005F0EDF8204692
:1004300080225421FFF7A1FF2046A9225621FFF771
:100440009CFF204603225821FFF797FF2046E82211
:100450005A21FFF792FF204640222A21FFF78DFF05
:1004600020463D222221FFF788FF204670224C21A2
:10047000FFF783FF2046BDE81040FFF7B2BF000042
:10048000014B01221A607047400D00200368184795
:1004900008B10B68036070477047704770470000F1
:1004A00008B50F21054804F006FA0F21044804F0AE
:1004B00002FA044B01221A6008BD00BFEC100020B4
:1004C000A0100020040D0020054A53681968136825
:1004D00019420EBF9268D2681B041360704700BFB8
:1004E000BC0D002038B51C2204460D46002106F044
:1004F0001DF92046294604F0D1FD204638BD0000F4
:1005000008B50021054804F0D6F9054BDA681B68E8
:100510001B041360034B01221A7008BDD80D002084
:10052000A00D0020980E0020C36810B504460BB142
:100530009B689847204610BDC36810B504460BB1B0
:100540009B689847204610BD70B506460B4B46F891
:10055000983B044646B100F1B805B54204D0103DC1
:100560002846FFF7E9FFF8E704F13800FFF7DCFF62
:1005700004F12800FFF7D8FF204670BD2CD70008F3
:1005800010B50446FFF7E0FF204602F02FFA2046A0
:1005900010BD000010B5094B036003F120027C334D
:1005A0000446C0F8BC20C0F8C030BC3004F0E4FF02
:1005B0002046FFF7C9FF204610BD00BF58D60008EF
:1005C000A0F1BC00E6E7A0F1C000E3E738B50546BE
:1005D000064B45F8283B044604F0B6FA2846FFF7D8
:1005E000ABFF204604F03AFC204638BDE4D60008B4
:1005F00010B50446FFF7EAFF204602F0F7F920465F
:1006000010BD38B5CB6804460D460BB15B68984702
:10061000EB68E360204638BD2DE970432DED028B79
:1006200084B00646684608EE102AFFF7EAFFDFEDC1
:10063000127A68EE277A6C4617EE900A0BF0F4FCFB
:1006400006F12805A5428046894607D02846FFF7CF
:1006500073FF1DB169462846FFF7D3FF42464B465C
:10066000304604F059FA2046FFF766FF04B0BDECAF
:10067000028BBDE8708300BF002474497FB54FF43E
:1006800016512D482D4C04F049FC2D492D4804F0FD
:1006900085FF4FF07C522C4B2C4800936946039405
:1006A000FFF7BAFF6846FFF747FF0221284804F02A
:1006B00009F9284B264800936946039404F08AF907
:1006C0006846FFF739FF244B24489A681B6813607B
:1006D0006946234B234A00930394FFF79DFF684626
:1006E000FFF72AFF2048214CFFF78EFE20491548CE
:1006F00004F054FF002323601E4BDA681B681B04C0
:100700001360FFF7FDFE1C490E4804F047FF236805
:100710000BB930BFFBE7194E0125002405FA04F19F
:10072000C943304604F0C7F801344FF07E5004F05E
:100730005DFF062CF1D0F1E7C00E002018CF0008B5
:1007400024CF00087C0F0020C9040008080D0020F9
:10075000B40C0020A1040008980F0020480D0020D0
:1007600081040008CDCC4C3E940B0020040D0020E9
:1007700047CF0008BC0D00205ECF0008A01000206D
:1007800010B50446FFF706FF204602F02FF9204679
:1007900010BDA0F1BC00F3E7A0F1C000F0E700003D
:1007A0002DE9F0437B4C7C4DDFF84082DFF840922E
:1007B0007A4F8FB04FF41653009303220023022187
:1007C000204604F071F92A4675492046754C02F01E
:1007D000CDF805217448FFF785FE1D21204604F061
:1007E000AFF82046714C2A46414602F0BFF8002679
:1007F000204604F00BFBC4F80090666320466C4C66
:100800002A46394602F0B2F8204604F0FFFAC4F84E
:10081000009066632046674CDFF8D8912A46394637
:1008200002F0A4F8644F202221212046FFF722FD88
:100830002046624C2A46394602F098F826222821A2
:100840002046FFF717FD2A46394620465C4C5D4F8F
:1008500002F08CF8322229238DE80C002C212A2367
:100860002B222046FFF746FD2A465749204602F034
:100870007DF84FF0FF340D230C940B940A940994E7
:1008800008940794069405940494039402940194A4
:1008900000930F220E231721484603F083FF2A46B8
:1008A00039464846DFF8509102F060F82E230C9448
:1008B0000B940A940994089407940694059404945C
:1008C000039402940194009370222F2371214846CF
:1008D00003F068FF2A463946484602F047F80723E6
:1008E00006931623DFF81491059327230C940B9499
:1008F0000A94099408940794049314201A21082355
:1009000009248DE81B00132215230A21484603F011
:1009100049FF2A463946484602F028F82B4C2C4815
:100920000621FFF7DFFD05212A48FFF7DBFD1C222A
:100930003146204605F0FAFE2046274C274E192165
:1009400004F099FB1821204603F0FAFF2A4641469D
:10095000204602F00BF8224C304604F09AFA30465A
:10096000204E2A46214602F001F8304604F091FA62
:1009700030461D4E2A46214601F0F8FF304604F06D
:1009800088FA2A46214630460FB0BDE8F04301F010
:10099000EDBF00BFC00E002098010020CD0500086B
:1009A00095050008B40C0020BC0D0020480D002067
:1009B000080D0020D00F00209D04000838100020F2
:1009C000940B0020694700086D030008B40F002055
:1009D000A00D0020980F0020240E0020A00E002063
:1009E0009B040008780E0020800D0020E1480008DC
:1009F000E4D60008EC100020A0100020D80D002044
:100A0000024B1B6803B11847704700BF3811002024
:100A10007047000008B5024C23689847FCE700BF08
:100A20009C010020836A9B0804BF234B1B88F0B500
:100A3000056B08BF9B0805EB8302540748BF043AC7
:100A40004FF0807402E91200A2F14006A2F14404C2
:100A5000A2F10C074FF0000E44F804EFBC42FBD1AA
:100A6000C46942F8204C4163C178C66202291DD096
:100A70001249296010490968C90017D5112B15D9E9
:100A8000103B6FF007015B084B43A3F138010A44A8
:100A90004FF0CC303146914209D1083333441A1F0C
:100AA00095423CBF4FF0CC3243F8042CF0BD41F8E6
:100AB000040C41F8080DEEE7CCCF0008A52E5AE251
:100AC00090F82520C36A12B1603319607047203353
:100AD000FBE710B590F82540C36A1CB1603383E88A
:100AE000060010BD2033FAE708B50B4800F09AFA6B
:100AF0000A4B18600A4800F095FA0A4B18600A4839
:100B000000F090FA094B186005F008FC0021084637
:100B1000BDE8084002F04AB8C4CF0008B41800206D
:100B2000C0CF000844110020BCCF00083C110020B9
:100B3000FFF770BF10B5044600F0FCF921460246ED
:100B4000BDE81040014804F023BC00BF84CF00087A
:100B5000FFF756BF0449054AC1F1005303F5BE3300
:100B6000D3601161704700BF74230020A0010020F2
:100B700000F02CFBFFF7EEFF0348002100F0DAFA4B
:100B800000F05EF9FEE70000A0010020024B4FF0EC
:100B9000FF31186800F064BA44110020014B186856
:100BA00000F086BA4411002080F309887047EFF303
:100BB00009807047684680F309885A480078C00762
:100BC00014BF0220032080F314887047DFF858C157
:100BD000EFF305831B0618BF6047EFF31483DB07B1
:100BE00008BF604700DF7047DFF840C1EFF30583BF
:100BF0001B0618BF6047EFF31483DB0708BF60478D
:100C000000DF7047EFF30980816911F8021CE1BB36
:100C100090E80F1010B5E047BDE81040EFF3098CE5
:100C20008CE80700424B93E80600914208BF7047EA
:100C300041B91EF0100F16D13E49086820F001009E
:100C4000086010E01EF0100F06BF2CED108A012086
:100C5000002081F825002CE9F00FC1F82CC00CB45D
:100C600000F076FF0CBC1A60D2F82CC0BCE8F00F84
:100C700092F8250000280EBF6FF0020E6FF0120EE2
:100C8000BCEC108A8CF30988704710B52A4A1268A8
:100C9000914209D8294C54F8214090E80F10A04700
:100CA000EFF3098C8CE80F0010BD10B500F0DCFEEE
:100CB000BDE810401E4B93E80600914208BF704704
:100CC000EFF3098C1EF0100F06BF2CED108A0120E7
:100CD000002081F825002CE9F00FC1F82CC00CB4DD
:100CE00000F036FF0CBC1A60D2F82CC0BCE8F00F44
:100CF00092F8250000280EBF6FF0020E6FF0120E62
:100D0000BCEC108A8CF30988704710B500F002FF24
:100D1000FFF7CEBF10B500F0FBFE00F0FBFEFFF7C3
:100D2000C7BF0000AECF0008231800083D18000818
:100D3000F41F002034EF00E000000000FCFFFFFF84
:100D40000B4A136830B5002443B90360816013B1C6
:100D50009D68691A996044B1206030BD9D68A942C0
:100D6000F3D31C46491B1B68EEE7106030BD00BF83
:100D7000B01F0020C0B1431C11D00C4B984211D8B9
:100D80000B4B1B684FF47A715A1E01FB0020B0FB1D
:100D9000F3F34FF6FE70834206D898B270474FF6D1
:100DA000FF7070474FF6FE70704700BF00093D00AE
:100DB00080CF000838B1830704D10378002B18BF17
:100DC000002070470020704738B50D4D2878A8B92D
:100DD0000C4C236893F8241000F030FF2368DA7875
:100DE000FF2A03D1DA6A203282F3098862680AB9DD
:100DF00084E80C0001F0DAF801232B70002038BDE4
:100E0000AD1F0020F41F0020014B1878704700BF71
:100E1000AD1F002010B5EFF3108434B9EFF3058453
:100E20001CB9EFF31484E40702D4034B187810BD07
:100E3000DFF808C000DF10BDAD1F0020090E00085C
:100E400010B588B0EFF31083002B35D1EFF3058395
:100E5000002B31D1FFF7DEFF28B9184C246814B1FC
:100E6000646804B1A047EFF3148404F00304022C77
:100E700016D0032C1AD0012C1CD008AC84F309889E
:100E80000F4C2478E4070FD5022484F31488BFF3B1
:100E90004F8FBFF36F8FDFF82CC000DF08B010BD9D
:100EA000074C2478E407F6D40324EEE7044C2478B6
:100EB000E407F0D5FF20F1E78220EFE7E41F0020F0
:100EC000AECF0008C90D000870B50B4616460246A5
:100ED00010B90024204670BD00680028F9D0B2F98E
:100EE0000440E51CADB2062DF3D8D168C1B112693A
:100EF000043444EA012100F0DFFE0028E9D00A4B67
:100F00000A4A013853F82040E36A5A63084B1B68C9
:100F100043B19B6833B13146E0789847E063D9E745
:100F20000A46E5E7E663D5E7F017002081100008E0
:100F3000E41F002008B500F079FE18B10138024B1B
:100F400053F8200008BD00BFF017002010B5FFF7D0
:100F500031FF044670B1084B1B681BB1DB680BB155
:100F6000C06B9847E07800F0FDFEFF280CBF8120A1
:100F7000002010BD802010BDE41F0020830705D194
:100F800038B1436901691B68184670470023194648
:100F9000FAE70346FBE7000010B504460846DFF811
:100FA0000CC000DF84E80300204610BD7D0F000860
:100FB00010B548B1046824B1237823B9204600F065
:100FC00051FC204610BD002010BD70B510F0030488
:100FD00005460E4611D180B10378032B0DD108468A
:100FE000FFF7C8FE0146284600F0B4FC012806D1F0
:100FF000002E14BFC120812070BD802070BD20460E
:1010000070BD820708B50AD148B10378032B06D119
:1010100000F030FCFF280CBF8120002008BD80209C
:1010200008BD000070B50546EFF3108494B9EFF3E6
:1010300005867EB9EFF31484E40706D4064C2478C1
:101040001CB9BDE87040FFF7B3BF2846DFF80CC0FD
:1010500000DF70BD002070BDAD1F0020B10F000883
:1010600010B5EFF3108434B9EFF305841CB9DFF841
:101070000CC000DF10BD822010BD0000CB0F0008A7
:10108000084808B54FF0FF310068FFF7E9FFDFF8C7
:1010900018C000DF0446FFF75BFD2046DFF80CC0F8
:1010A00000DFFEE7A81F0020350F00084D0F0008E5
:1010B00010B5EFF3108434B9EFF305841CB9DFF8F1
:1010C0000CC000DF10BD822010BD0000031000081E
:1010D0002DE9F04180460F461646EFF3108404BB1D
:1010E000EFF30583D3B9EFF31483DB0706D40E4B7C
:1010F0001B781BB9BDE8F041FFF7E6BE0B4D4FF082
:10110000FF312868FFF7ACFF404639463246DFF82A
:1011100020C000DF04462868FFF7CAFF2046BDE86C
:10112000F0810024FAE700BFAD1F0020A81F0020B7
:10113000C90E00080022FFF7CBBF10B5044660B10E
:10114000016851B1406848B1037833B9043189006E
:1011500089B200F037FA606810BD002010BD0000B1
:1011600038B5114C23780BB900F0A6FE0F4B25784B
:101170001B68FF229A708DB929460D48FFF7DDFFE5
:101180000C4B2A46186029460B48FFF79DFE0B4B77
:1011900018600B48FFF746FF0A4B186001232370C5
:1011A000094B0020187038BDAC1F0020F41F002030
:1011B000B4CF0008B0180020D0CF0008A41F002032
:1011C000E8CF0008A81F0020AD1F002010B5EFF3E6
:1011D000108474B9EFF305845CB9EFF31484E40769
:1011E00003D4BDE81040FFF7BBBFDFF80CC000DF41
:1011F00010BD822010BD0000611100082DE9FF41E3
:101200000C46804618B30378012B25D10846FFF71A
:10121000B1FD02A90246404600F0E2F9012811D1D1
:101220000020002C0246034618BF402002990446C5
:101230000D4616461F462046294632463B4604B018
:10124000BDE8F0810020024603461020EEE780242E
:10125000054606460746EEE7002580242E462F4623
:10126000E9E770B50E461446054660B15AB90378F1
:10127000012B08D100F00AFA38B12846314600F0B7
:1012800009FA204670BD802070BD812070BD00002D
:10129000F8B5114E34682CB1A368104F013BA36020
:1012A000A26802B1F8BD2568386835602146FFF7AD
:1012B000D8FF10B10420FFF73DFC6379012B07D163
:1012C000E1682046FFF73CFD002DEBD02C46E7E718
:1012D00001232371F8E700BFB01F0020B0180020E1
:1012E0007FB504461646084601B122B1802323602B
:1012F000204604B070BD0B78012BF7D102A900F095
:10130000D0F9042808BF102301AD14BF0196019342
:1013100095E8070084E80700EAE7000038B50446CE
:101320001546EFF3108010B9EFF3058028B12A4677
:101330002046FFF7D5FF204638BD08461146DFF8A6
:101340000CC000DF84E80700F5E70000FD1100088D
:101350007FB50A4C21684FF0FF3203A8FFF7DEFF8C
:10136000039B102BF6D1049901A8FFF715FE019BF2
:10137000002BEFD002989847ECE700BFB018002090
:1013800010B5038B42781943062A04460183438B28
:1013900015D133EA010219D121EA03012183204644
:1013A00000F0D6F8012320466370628B0821FFF716
:1013B00090FB21460648BDE8104000F00BB8052A16
:1013C00004D111EA030201D04283E5E710BD00BF5A
:1013D000B41F002030B502788C784368013AD2B24D
:1013E00013B19D78A54207D2022A4B60416006D80E
:1013F00003B19960886030BD18465B68F0E7002350
:101400008B6030BD02784368013A59684160022A16
:101410004FF0000205D809B188605A609A601846FA
:1014200070475A60FBE70000034B5A684260002295
:1014300082605860704700BFB41F0020104BDA680C
:1014400010B58AB19A8ADC688A420CD3C460D8602D
:10145000C468036104B12061521A92B28282998AEF
:101460008A1A9A8210BD3CB900248A1AC460D860D6
:1014700003619A82848210BDA38A1A442346E2E75C
:10148000CC1F00202DE9F041174DEB6853B1AB8A1A
:10149000164FDFF85C80013BAB820026AA8A0AB9AE
:1014A000EC680CB9BDE8F081A36833B1616859609C
:1014B000616809B18B606260A66021463846FFF71B
:1014C00089FFA38AAB826378042B01BFD8F8003070
:1014D000E28A9B18A38201236370E368EB600BB17F
:1014E0001D61E6602661D9E7CC1F0020B41F0020F3
:1014F0003C20002083682BB142685A6042685AB190
:1015000093607047054B5A68904202D142685A6016
:1015100070471346002AF6D1704700BFB41F002061
:1015200010B5846801462CB94378012B0DD1074CC6
:1015300003E0A4682378002BFBD00846FFF7DAFF0E
:101540002046BDE81040FFF745BF10BDB41F002086
:10155000036910B563B1C268DA60C2684AB1998A9A
:10156000848A2144998213610023C36000230361AC
:1015700010BD9A82FAE7000070B4114BDD78EFF3EA
:101580001086EFF3108272B69A78954211D9013223
:101590009A701A78541CA54208BF00241C7006B922
:1015A00062B6954207D903EBC20370BC58609960DC
:1015B0007047002EF4D0022070BCFFF7BBBA00BF0A
:1015C0002C18002001231039037089080023437070
:1015D00083704360038143818381C1817047000030
:1015E00070B5858904461646002D38D043891A1DEA
:1015F000013350F822200A60C2899BB29A4243818B
:1016000004BF002343814368F3B14378022B1BD10D
:10161000FFF7F8FE00210546FFF752FA2389E96932
:101620001A1D013344F82210E2899BB29A422381A9
:1016300008BF0023284608BF2381FFF789FF2846FB
:1016400000F0B6FA002070BDEFF31080EFF31083C6
:1016500072B6013DA5810028F4D162B670BD4AB1D1
:101660004268094B42B11968FFF7B4FE08213046C1
:1016700000F0C2FA012070BD1B6843605A60986098
:1016800001234370F2E700BFF41F0020C289808964
:10169000101A704708B5FFF76FFFBDE8084000F06B
:1016A000D1B9838910B504460BB34389043350F88C
:1016B00023300B604378022B04D10021FFF75CFF3D
:1016C00000F0C0F9EFF31083EFF3108272B6A28935
:1016D000013AA28103B962B66389E28901339BB200
:1016E0009A42638101D100236381042010BD184612
:1016F00010BD0000436870B504460E46002B4BD069
:101700004578022D20D0032D0AD0012D61D1FFF79D
:1017100079FE044632461021FFF7DBF965700EE0D2
:10172000084600F07EF80546002852D02046FFF714
:1017300069FE29460446FFF7C3F90123637020467A
:10174000FFF706FF214622E0FFF75CFE0021054679
:10175000FFF7B6F92389E9691A1D44F82210EFF35F
:101760001082EFF3108172B6A1890131A18102B913
:1017700062B6E28901339BB29A42238104BF0023FF
:10178000238101236B702846FFF7E2FE29461148AA
:10179000BDE87040FFF71EBE8089E189884213D200
:1017A00023891A1D44F82260EFF31082EFF31085AD
:1017B00072B60130A08102B962B601339BB2994280
:1017C00008BF0023238170BD0320BDE87040FFF7F0
:1017D000B1B970BDB41F0020002ABBBF22F0004287
:1017E0000732033222F00702A8BF22F0030210B52D
:1017F000B4BF10230C2392B1D4188C420FD80144EB
:10180000034454424160036082602144981881423D
:1018100002D300510346F9E70020186010BD0120F3
:1018200010BDEFF3108372B6026803F001030AB132
:101830001168016003B962B61046704781420DD34A
:10184000436899420AD2EFF3108372B602680A60C5
:10185000016013F0010003D162B6704701207047A8
:10186000002070470323037000234380436083609C
:10187000C36070472DE9F84343880546002B63D0C9
:10188000324F81683A6891425ED1013B9BB24380FE
:101890001BB100242046BDE8F8830B6A984229D189
:1018A000C3680B6291F824300C6A5CBB8B706A6869
:1018B000DFF89C80002A3BD02846FFF7A3FD214695
:1018C0000646FFF7FDF83046FFF742FE336AEB604D
:1018D0004FF001093968D8F80430A5F80290AE60DD
:1018E00035628A789B789A4214D3304600F060F9CA
:1018F000D0E71346002BD5D0DA689542F9D1EA68D3
:10190000DA60CFE762681AB19278934238BF134623
:10191000E468CAE74046FFF75DFD31464046FFF701
:1019200059FD3B6883F8019086F801902046DDE779
:10193000D8F8042092789A42ABD94046FFF74AFD86
:101940003B6801225A70F1E7FF24A3E7F41F00204F
:10195000B41F0020438870B504460E46134D43B9AA
:101960002A688260116AC1601062013363800020BE
:1019700070BD80682A689042F7D081B193788278F0
:101980009A4202D28370FFF7CBFD62684AB12968A0
:101990002046FFF71FFD0921304600F02DF90120F8
:1019A00070BD2B6863605A609C60F4E7F41F0020F0
:1019B000034B00221A60034A1268DA80704700BFA6
:1019C000E81F0020C8CF000808B50E4B5A680E4B20
:1019D000196891420D4905D01A60DA880868013A01
:1019E00002449A8098880A8890420AD100220548C9
:1019F0001A60FFF707FDBDE8084001460148FFF700
:101A0000E9BC08BDB41F0020E81F00203C200020D6
:101A1000426810B57AB1FFF7F5FC0446FFF798FD70
:101A2000012161702046FFF74BF821460448BDE8CC
:101A30001040FFF7CFBC42880132428010BD00BF8A
:101A4000B41F0020054B1B7823B9054B4FF0805283
:101A50001A607047034B01221A707047A8110020CA
:101A600004ED00E0A911002038B51A4B1A4C186893
:101A700001234370FFF7D8FC6578A3783BB917487A
:101A80006570FFF7BFFCBDE8384000F077B804EBA5
:101A9000C503586802789AB91989FFF771FCE37891
:101AA00001359D4208BF0025EFF31083EFF310824C
:101AB00072B6A278013AA270002BDED162B6DCE7E2
:101AC000012A03D19968FFF715FEE8E7FFF7A0FFA9
:101AD000E5E700BFF41F00202C180020B41F0020F1
:101AE000084B1A68084B1A6000225A60072243F814
:101AF000042C064A136843F07F4313604FF0FF3015
:101B0000704700BFE4CF000814E000E020ED00E0E3
:101B10007047000008B50B4B186801234370FFF7AE
:101B200083FCFFF751FF084A136801331360FFF786
:101B3000A9FCFFF7ADFB0548FFF764FCBDE80840D2
:101B400000F01CB8F41F00203C200020B41F00202F
:101B5000084B1B68DA78022A0AD01A6BDB6A9A42B1
:101B600003D81268044B9A4202D00120FEF7E2BF6C
:101B7000704700BFF41F0020A52E5AE2054B5860A5
:101B800002234370044B1B681BB11B690BB1C06B74
:101B900018477047F41F0020E41F002008B50348D1
:101BA000FFF730FCBDE80840FFF7E8BFB41F002096
:101BB00070B5044618B9BDE87040FFF7EFBF0C4E92
:101BC000A278306883789A424FF0010508D9FFF770
:101BD0002BFC33685D702046BDE87040FFF7CEBF38
:101BE000657021460348BDE87040FFF7F3BB00BFB6
:101BF000F41F0020B41F002038B50D46014680B107
:101C00004FF6FF739842074C02D02068FFF716FC8E
:101C1000236805485D70FFF7F5FBBDE83840FFF726
:101C2000ADBF38BDF41F0020B41F0020024B186860
:101C300000B1C078704700BFF41F002010B5A8B9EC
:101C4000194B1B68997083F82410184843689B78D7
:101C50008B4201D8002010BD134C2168FFF7BAFB5E
:101C6000236801225A70FFF799FFF3E7104B1B8896
:101C7000984217D801380F4B53F8204094B10A4BC3
:101C8000A1701B6884F824109C42DED02046FFF728
:101C900047FC6378012BDDD10448FFF7B3FBFFF766
:101CA00087FFD7E7FF2010BDF41F0020B41F0020DE
:101CB000B0CF0008F01700202DE9F04711F0FF0F1A
:101CC0000D468046234816469A4608BF0135FFF761
:101CD000A8FD044620B94FF000094846BDE8F0874A
:101CE0001D4B06631B881D4E280AA06200218B42F3
:101CF00001F10109EFD006EB89020F4652F8042CDE
:101D00004946002AF3D1EDB2012384F80390C4F8C8
:101D10001CA0C4F838A022706370A57084F8245009
:101D20006260A260E26022612262A282E282228379
:101D3000628384F8252018B90948FFF772FD2063F3
:101D400020464146FEF76EFE204646F82740FFF744
:101D50002FFFC2E7D81B0020B0CF0008F0170020EB
:101D6000E01500202DE9F84F4D4D18B12B68DB78B8
:101D7000984241D12C68DFF83C8100236370FEF764
:101D800016FFE062FFF7E4FE2B681C6A0127A4B986
:101D90002A684449D3784448013B41F82340116BF9
:101DA000FFF74CFD296841480C63FFF747FD2C60A5
:101DB000FFF7F4FE2046BDE8F88F6368B3B1204614
:101DC000FFF720FB00210646FEF77AFE3046FFF7BC
:101DD000BFFB777031464046FFF7FCFAE368326A92
:101DE0006780A660E26034621C46D0E7E2686380E8
:101DF000A360E3601446CAE72D4B1B8898424DD878
:101E0000284B471E994653F82760002E46D030468F
:101E1000FFF770FB3046FFF79BFBDFF898B0346AA2
:101E20004FF0010AB4B9316B1F4849F82740FFF75A
:101E300005FD314634631D48FFF700FD1D48296844
:101E400043689A788B789A42B4D901234B70FFF794
:101E5000C1FAADE76368DBB12046FFF7D3FA002192
:101E60008046FEF72DFE4046FFF772FB88F801A082
:101E700041465846FFF7AEFAE368D8F82020A4F8A8
:101E800002A0C4F80880E260C8F820401C46C9E7F8
:101E9000E2686380A360E3601446C3E7FF2489E738
:101EA000F41F0020F0170020E0150020D81B0020B0
:101EB000B0CF0008B41F002038B52C4B2C491A882D
:101EC0000023184693424DD32A4B2B4819882B4C9C
:101ED0004022FFF781FC2A4B2A481A882A4B42F0FD
:101EE00000421968FFF778FC284B1988284B082214
:101EF0001868FFF771FCFF230025E3702148A562F5
:101F0000012363702570A57084F824506560A56076
:101F1000E56025612562A582E5822583658384F8D5
:101F20002550FFF77EFC1B4920632046FEF77AFD13
:101F3000194B04221A705D60184B1A70DD601D6128
:101F40009D82174B20461C6002236370FFF716FE2C
:101F5000144A154B12781D705D70DA70BDE8384078
:101F6000FFF726BD41F823000133ABE7B0CF0008EF
:101F7000F01700207CCF0008D81B0020FC1F002099
:101F8000CCCF0008E015002078CF00087ECF0008F5
:101F900040110020310B0008B41F0020CC1F00208E
:101FA000F41F0020ADCF00082C18002008B51E4BF0
:101FB0001A6842F47F021A601B681B0203F07F4319
:101FC000DB43B3FA83F3194A194812680168DBB29C
:101FD000C3F10803C2F30222934298BF531C6FF06F
:101FE000807202FA03F303F07F4321F07F42134330
:101FF0000360FFF775FD0F4B0028186012DB00F13E
:10200000604000F56440FF2202701A6853099B008B
:1020100003F1604303F5614302F01F02012101FA5D
:1020200002F21A6008BD00BF20ED00E00CED00E0F8
:102030001CED00E0F01F00207FB50023072855D8D5
:10204000DFE800F00413202D3A54544700932A4B44
:102050002A481A6B42F001021A631B6B03F001035A
:102060000093009B07B05DF804FB0193224B2448CA
:102070001A6B42F002021A631B6B03F00203019316
:10208000019BEFE702931C4B1E481A6B42F00402BF
:102090001A631B6B03F004030293029BE2E70393B2
:1020A000154B19481A6B42F008021A631B6B03F0B8
:1020B00008030393039BD5E704930F4B13481A6B54
:1020C00042F010021A631B6B03F010030493049B8D
:1020D000C8E70593084B0E481A6B42F080021A635A
:1020E0001B6B03F080030593059BBBE7094803F0D6
:1020F0004FF90020B6E700BF003802400000024060
:102100000004024000080240000C0240001002409F
:10211000001C024090D10008431C10B5044604D1B5
:1021200074220649064803F021F92046002100F0F8
:1021300061FD04F00F040120A04010BDB1D10008E2
:1021400005D2000870B504464B1C0E46218216D0FD
:10215000C1F30310FFF770FF05463046FFF7DCFFC1
:10216000238A074A656103F00F03206052F8233089
:10217000A36105F1100318356360A560E56070BDCB
:10218000D0D30008B0F9100000F0CCBD10B58369C1
:10219000446971B9216893FAA3F2B2FA82F203207A
:1021A000520000FA02F221EA020293FAA3F322603B
:1021B00010BD226893FAA3F1B1FA81F193FAA3F367
:1021C0000320490000FA01F1B3FA83F322EA010285
:1021D0005B00012101FA03F31343236010BD0000EB
:1021E0004C22F0B54243184EDFF868C0131D33444B
:1021F000074600244FF0010E16448C4205D13946A3
:102200001248BDE8F04003F0C3B832680EFA04F596
:10221000154216D01A6BDCF814000EFA02F20242D4
:102220000FD09D69CCF81420186850B12B691A4260
:10223000074B08BF02211B6818BF0121BDE8F04011
:10224000184701340433D8E7AC1100203FD200080E
:10225000C0130020003C014006210846FFF7C0BF24
:1022600005210846FFF7BCBF01210420FFF7B8BFD6
:1022700001210320FFF7B4BF01210220FFF7B0BF07
:1022800001210846FFF7ACBF01210020FFF7A8BFDE
:10229000012910B518D11B4C838952B1A26803F0F3
:1022A0000F0399401143A160836843F001038360E9
:1022B00010BDA26803F00F03994022EA0101A1605A
:1022C000836823F00103F2E70229F1D10D498389E4
:1022D0005AB1CC6803F00F03012202FA03F323433F
:1022E000CB60836843F00203E1E7CA6803F00F03A1
:1022F000012404FA03F322EA0303CB60836823F08A
:102300000203D4E7003C0140B0F90C3099B270B53B
:1023100001F00F0606F00C0404F1804404F59C342F
:1023200001F00301A56889000F228A40C3F303135B
:1023300025EA02058B402B43A3600F4B012219684D
:10234000B240114319608468E50742BF99681143A0
:102350009960A10742BFD9680A43DA6090F900305A
:10236000002B08DB5909012203F01F0302FA03F3D3
:10237000024A42F8213070BD003C014000E100E01B
:102380002DE9F04F92464A1C85B080460C4666D037
:1023900000220392334A344F516C41F4804151641E
:1023A000526C02F480420392039A04F00F090C224B
:1023B00002FB0972C4F303105568062D47D8DFE805
:1023C00005F0043A3C3E40424400284E0193FFF79A
:1023D00033FE0C2101FB09F17A1857F801E0244F74
:1023E000A8F80C404C21694301247B5892F908203D
:1023F000C8F8045004FA0EF44FF0000B1C4388F8A0
:102400000020C8F808B07C50132101FB05E507EB5C
:102410008501019B4B60174BC861C3F800A0164BA8
:10242000C1F834909B681032404643F82260FFF7B1
:102430006BFF584610E0114EC8E7114EC6E7114E2B
:10244000C4E7114EC2E7114EC0E7114EBEE7114876
:1024500002F09EFF4FF0FF3005B0BDE8F08F084658
:10246000FAE700BF003802406CD200088922000859
:10247000AC110020C013002000ED00E08122000814
:1024800079220008712200086922000861220008F0
:102490005922000818D200088389184A03F00F0354
:1024A000012110B501FA03F39468DB431C409460EA
:1024B000D4681C40D46014682340136090F9003045
:1024C000002B0CDB5A0903F01F0301FA03F320323F
:1024D0000B4941F82230BFF34F8FBFF36F8F90F954
:1024E0000030002B09DB5A09012103F01F0301FA18
:1024F00003F36032024941F8223010BD003C014034
:1025000000E100E0838903F00F020C235343104ADB
:1025100070B54468D658FFF7BFFF4C210D4A6143A0
:10252000012000FA06F55058132303FB046320EA48
:102530000500505002EB830000214160981D0C33D0
:1025400002EB800002EB83034160596070BD00BF65
:102550006CD20008AC11002070B5134C23681A69C6
:10256000950707D5DA68900704D56FF002021A6163
:1025700002F09CFD23681A69510713D5DA685207E7
:1025800010D56FF00402094E1A615D6A3368EB1AC8
:10259000B3F57A7F06D300F091FD236805F57A72D2
:1025A0009A63356070BD00BF10230020C413002063
:1025B00030B589B001A903A801F044F801F012F880
:1025C00000230293274B01901A6C274C42F008021B
:1025D0001A641A6C02F008020292029A1A6A42F015
:1025E00008021A621A6A22F008021A62069AA3F511
:1025F0000B3323604FF0FF33E3601C4B002A2FD1D5
:10260000B0FBF3F001380025606017482561A56034
:10261000656101F043FC164B164A9B681248C3F8EB
:102620000821154B4FF480225A60294601F072FCB4
:1026300004210D4801F06EFC2368104A596A1160AC
:10264000126802F57A729A63DA6842F00402DA607C
:102650000B4A9368284643F00803936009B030BDE5
:102660004000CDE7003802401023002040420F0018
:1026700000ED00E05925000800E100E0C41300204F
:10268000002004E000B589B002F09EFE052101A8FB
:1026900002F004FD039B019A1A60962002F0B4FF39
:1026A000019B049A1B041360962002F0ADFFF1E732
:1026B00070B50D46A0B0044602F086FE2B462246B9
:1026C0008021684605F0CEFF051E03DC02F0A8FE5F
:1026D00020B070BD094B1B6823B9032202210848B2
:1026E00000F0B6FB064E00241DF8041030460134FD
:1026F00000F07AFCA542F7D1E8E700BF04150020FE
:10270000C02200200FB407B504A951F8040B0191B1
:10271000FFF7CEFF03B05DF804EB04B0704708B5D7
:1027200001F094FF00F0B2FC01F082FFBDE8084028
:1027300001F08CBF08B5084B1B685BB90221074844
:10274000032200F085FB4FF416510448BDE8084011
:1027500000F028BC08BD00BF04150020C0220020E6
:10276000022810B501DC002010BDC31E0B4A52F830
:102770002300002142F8231030B902F0D7FF0923CB
:1027800003604FF0FF3010BD03685B699847041E7B
:10279000E9DA02F0CBFF64420460F2E7C8130020DC
:1027A0000228F8B50D4614460EDC134B1B680BB916
:1027B000FFF7C0FF114E2F19BD4210D015F8011BB5
:1027C000304600F011FCF7E703380D4B53F82000BA
:1027D00038B902F0ABFF092303604FF0FF34204605
:1027E000F8BD0368DB689847041EF8DA02F09EFF24
:1027F00063420360F3E700BF04150020C0220020FD
:10280000C8130020022810B50C460BDC104B1B68C7
:102810000BB9FFF78FFF0F4800F0D4FB20700124A5
:10282000204610BD03380C4B53F8200030B902F09D
:102830007DFF092303604FF0FF34F1E703689B68D5
:102840009847041EECDA02F071FF63420360E7E789
:1028500004150020C0220020C8130020022810B553
:1028600016DD03380B4B53F820402CB902F05EFF05
:1028700009230360204610BD23682046DB69984782
:10288000041EF7DA02F052FF644204600024F1E70C
:102890000124EFE7C8130020022810B506DC02F07F
:1028A00045FF1D2303604FF0FF3010BD03380A4B76
:1028B00053F8200018B902F039FF0923F2E7036842
:1028C0001B699847041E04DA02F030FF644204607A
:1028D000E9E7204610BD00BFC8130020022808B554
:1028E00004DC4FF400534B60002008BD02F01EFFD3
:1028F000092303604FF0FF3008BD08B5012000F048
:1029000037F800000C4A136810B51844EFF308813B
:10291000884205D3094B0C221A604FF0FF3010BDDE
:1029200007490C6824B10749096821448842F1D25B
:102930001060184610BD00BFB401002070230020B5
:10294000D0140020D4140020074C08B52368054695
:10295000986803F025F82368D86803F021F80DB1D2
:10296000FFF790FEFEE700BFBC010020012070478A
:1029700008B5FFF7E9FF01207047002103F0CEBF43
:102980001FB504220C463A230DEB020101900DF114
:1029900009008DF8083003F0CBFD214602A803F0B2
:1029A00043F9044638B101980368DB69984710B1D0
:1029B0002046FFF7E2FF204604B010BD08B5FEF741
:1029C000E5F808BD08B5FEF7E9F808BD10B503F055
:1029D0004DFD044610B9024802F0DAFC204610BD55
:1029E00099D3000808B103F049BD7047FFF7FABF5B
:1029F000034610B553F8042B044602B9036022685D
:102A00009A4204D05B220349034802F0AFFC2068DD
:102A100010BD00BF2CD3000885D3000810B50446B4
:102A20000948FFF7E5FF0023084A194652F823003A
:102A3000A04208BF42F823100133402BF6D10248D0
:102A4000FFF7D6FF10BD00BFC8140020C813002038
:102A50002DE9FF4789464049064604F085F80446BB
:102A600028B9FFF767FE204604B0BDE8F0873B4970
:102A7000304604F079F818B9FFF75CFE0124F2E75C
:102A80003749304604F070F818B9FFF753FE0224B6
:102A9000E9E73448344DFFF7ABFF0024A84655F86A
:102AA0002470002F40D00134402CF8D102F03EFEBB
:102AB000182303602B48FFF79BFF0EE0314602A866
:102AC00002F00AFC02A802F04BFC064640B902F0F4
:102AD0002DFE0223036045F824604FF0FF34C2E767
:102AE00002A802F02BFC074602A81FB102F02FFC3F
:102AF00001902BE002F019FC06460028E7D003689D
:102B000002A8D3F808A002F005FC29F4803302469D
:102B100001A93046D0470646C0B102F007FE764212
:102B2000066045F82470D8E74FF0FF330D4845F8AC
:102B30002430FFF75DFF337801973A2BBED1042292
:102B4000711C02A803F0F4FC029B0193019B48F85E
:102B50002430033487E700BFBED30008C5D3000884
:102B6000B6D30008C8140020C81300207047000026
:102B7000074B08499A68084810B5043A52F8044FC0
:102B800041F8044F8142F9D14FF000529A6010BDD4
:102B900000ED00E0FCFFFF1F9001002008B5FFF7EB
:102BA000E7FFFFF7BCFDFDF7E3FF08BD08B5FFF742
:102BB000DDFFBDE80840FDF761BD30B5C36891FA9F
:102BC000A1F4B4FA84F491FAA1F10325B1FA81F1E8
:102BD000640005FA04F4490023EA040302FA01F14F
:102BE0001943C16030BD012A02D0022A18BF002259
:102BF000FFF7E3BF2DE9F0410E46411C044604D126
:102C00003E224449444802F0B1FB04F00F08434B14
:102C1000C4F3031053F82850FFF70EFA06F0070725
:102C20000446836895FAA5F1B1FA81F195FAA5F207
:102C30000320490000FA01F1B2FA82F223EA01030B
:102C40005200022101FA02F21343A36087425AD8CC
:102C5000DFE807F05E1D021DB8F1070FC6F3032081
:102C60003BD9626A2B0A93FAA3F1B1FA81F193FA84
:102C7000A3F34FF00F0EB3FA83F389000EFA01F1BC
:102C80009B0022EA010200FA03F3134363623B460E
:102C9000226895FAA5F0B0FA80F095FAA5F14FF008
:102CA000030EB1FA81F140000EFA00F0490022EA69
:102CB00000028B40013F1343012F236005D8636856
:102CC00032074CBF2B43AB436360C6F30112294666
:102CD0002046BDE8F041FFF786BF226A95FAA5F3CA
:102CE000B3FA83F395FAA5F14FF00F0EB1FA81F123
:102CF0009B000EFA03F3890022EA030200FA01F3B3
:102D000013432362C3E767220249054802F02EFB02
:102D10000023BDE710D4000805D20008D0D3000876
:102D200062D40008431C70B506460D4604D18822C3
:102D30001B491C4802F01AFB06F00F021A4BC6F39F
:102D4000031053F82240FFF777F904FB04F20168FF
:102D500002EB42030B40B3FBF2F3013B012B05D81E
:102D6000EB1E022B436809D823434360032D08D18F
:102D700001222146BDE87040FFF735BF23EA040376
:102D80004360012DF4D0052D01D0022D01D1022286
:102D9000EFE721460022BDE87040FFF70EBF00BFFD
:102DA00010D4000805D20008D0D3000842681649A4
:102DB000920110B504685450531882685A60C26872
:102DC0009A600269DA6042691A61026A9A610022B5
:102DD000DA84DA619A84DA859A85B0F91A200132A8
:102DE0000AD108225A61184601F0B1F958B10748D2
:102DF000BDE8104002F0CCBAB0F9182001320CBF87
:102E000004220C22EEE710BD4020002064D400080C
:102E10004368094A9B0182B0D3581A68120706D545
:102E2000002201921A6801925A680192019A186868
:102E3000C0F3401002B07047402000204368034AAE
:102E40009B01D3581868C0F3C01070474020002081
:102E5000F0B50E4685B0044649493046154602F0A5
:102E600067F948490746284602F062F901463846A4
:102E700002F040F92060013004D13E22424943482B
:102E800002F074FA2368424A93421ED002F580622F
:102E900093425ED0A2F5504293422BD13D4B1A6A29
:102EA00042F400321A621A6A22F400321A620022D4
:102EB00002921A6C42F400321A641B6C03F4003361
:102EC0000293029B0123636014E0324B5A6A42F082
:102ED00010025A625A6A002122F010025A620191CD
:102EE0005A6C42F010025A645B6C616003F010038C
:102EF0000193019B2249304602F0DEF82149284621
:102F000002F0DAF8721C03D001213046FFF70AFF05
:102F10006B1C03D001212846FFF704FF4FF4165322
:102F2000A3600023E36023616361236226836583DA
:102F30002046FFF73BFF2268174B9A4207D1174BF9
:102F4000174801221A6021464C2203F0F1FA05B01D
:102F5000F0BD104B5A6A42F020025A625A6A22F0BF
:102F600020025A62002203925A6C42F020025A64F4
:102F70005B6C03F020030393039B0523A3E700BFCF
:102F800048D1000800D100087CD40008E4D400082F
:102F900000100140003802400044004004150020A9
:102FA000C02200208160FFF701BF0000034B1960C1
:102FB0004168034B43F82120704700BFD81400201C
:102FC000DC14002038B5446805462846FFF720FF8A
:102FD0000028FAD0A401034B1B595868C0F308001D
:102FE00038BD00BF4020002070B5456806460C463D
:102FF0003046FFF723FF0028FAD0AD01024B5B59A2
:10300000C4F308045C6070BD4020002008B50E4A7F
:10301000C36D934214D008D8A2F5806293420FD0BA
:103020000A4802F0B5F9002008BD094A934203D0CE
:1030300002F580629342F3D1BDE8084000F0EABA9D
:10304000BDE8084000F0CEBA003C004000D50008C2
:1030500000300140DFF820D0002103E0074B5B582F
:10306000435004310648074B42189A42F6D301F008
:103070003BFAFDF7C5F870470080012054DC0008DA
:1030800098010020780B0020FEE7000008B50A4BED
:103090001A6842F400721A601A6842F480621A6078
:1030A0001A6842F480721A600F20FFF781FA00F06C
:1030B00013F8002008BD00BF003C0240024A13681C
:1030C00001331360704700BF0C230020014B1868C8
:1030D000704700BF0C230020704700000368F7B55D
:1030E0000446D8073BD42368990700F186802368FB
:1030F0001E0700F1D18023685D072AD500230193C4
:103100008E4B8F4D1A6C42F080521A641B6C03F088
:1031100080530193019B2B6843F480732B60FFF76E
:10312000D5FF06462B68DA0540F1D880A368834DA9
:10313000012B40F0DA802B6F43F001032B67FFF780
:10314000C5FF7E4D064641F288372B6F9B0740F145
:10315000ED80A269002A40F0F980002015E0774B4D
:103160009A6802F00C02042A07D09A6802F00C0256
:10317000082A0CD15B685A0209D5704B1B689B0367
:10318000B1D56368002BAED1012003B0F0BD6368F8
:103190006A4DB3F5803F11D12B6843F480332B6027
:1031A000FFF794FF654D06462B689F039BD4FFF7FE
:1031B0008DFF801B6428F7D90320E6E7B3F5A02F25
:1031C00004D12B6843F480232B60E5E72A6822F4BE
:1031D00080322A602A6822F480222A60002BDFD104
:1031E000FFF774FF06462B6898037FF57CAFFFF767
:1031F0006DFF801B6428F6D9DEE7504B9A6812F009
:103200000C0F07D09A6802F00C02082A16D15B68EE
:10321000590213D4494B1A68920702D5E268012A71
:10322000B2D11868F82292FAA2F2B2FA82F12269B7
:103230008A4020F0F8010A431A6058E7E268414BDF
:10324000DAB101221A60FFF741FF3C4D06462B68B8
:103250009B070CD52968F82393FAA3F3B3FA83F2FA
:103260002369934021F0F80213432B603FE7FFF7F7
:103270002DFF801B0228EAD99EE71A60FFF726FF80
:103280002E4D06462B689F077FF531AFFFF71EFFD7
:10329000801B0228F6D98FE762692B4B7AB1012295
:1032A0001A60FFF713FF254D06466B6F98073FF531
:1032B00022AFFFF70BFF801B0228F6D97CE71A60CC
:1032C000FFF704FF1D4D06466B6F99077FF513AF9F
:1032D000FFF7FCFE801B0228F6D96DE7FFF7F6FE2C
:1032E000801B02287FF61EAF66E7052B04D12B6FEB
:1032F00043F004032B671EE72A6F22F001022A67BE
:103300002A6F22F004022A67002B7FF418AFFFF720
:10331000DDFE41F2883706462B6F98077FF519AF1F
:10332000FFF7D4FE801BB842F6D945E7FFF7CEFE83
:10333000801BB8427FF609AF3EE700BF003802406D
:103340000070004000004742800E47422B4DAB68A2
:1033500003F00C03082B3FF417AF294E0023022A79
:1033600033603ED1FFF7B2FE07462B68990132D495
:1033700047F6C07797FAA7F74FF44032B7FA87F7C6
:1033800092FAA2F24FF07061B2FA82F091FAA1F1D2
:10339000226AE3691343626A02FA07F7A26A5208D3
:1033A000013A82403B431343E26A144CB1FA81F183
:1033B00002FA01F10B436B6001233360FFF786FED5
:1033C000054623689A013FF5C8AEFFF77FFE401B14
:1033D0000228F6D9F0E6FFF779FEC01B0228C4D90F
:1033E000EAE6FFF773FE04462B689B017FF5B5AE56
:1033F000FFF76CFE001B0228F6D9DDE6003802401C
:1034000060004742194A936803F00C03042B10B57F
:1034100003D0082B03D0164810BD164810BD5168C4
:10342000536801F03F0113F4800F47F6C0745368EE
:1034300094FAA4F0B0FA80F003EA040323FA00F34C
:1034400014BF0C480A48B0FBF1F05843074B4FF447
:1034500040325B6892FAA2F2B2FA82F203F440338D
:10346000D34001335B00B0FBF3F010BD00380240E5
:103470000024F40000127A00564B1A6802F00F0282
:103480008A422DE9F04105460E4630D32A6894075A
:1034900037D4D0073DD44F4B1A6802F00F02964242
:1034A000C0F088802A68510700F18C80130707D587
:1034B000494A2969936823F4604343EAC10393604E
:1034C000FFF7A0FF444BF0229B6892FAA2F2B2FAF7
:1034D00082F203F0F003D340404AD35CD840404B23
:1034E00018600F20FFF764F80020BDE8F081CAB231
:1034F0001A701B6803F00F039942C7D00120BDE882
:10350000F0813549A8688B6823F0F00303438B6092
:10351000BFE76A68304B012A1ED11B6813F4003FD5
:10352000ECD02D4CA36823F003031343A360FFF7F3
:10353000CDFD6B68012B074641F2883816D1A36890
:1035400003F00C03042BA6D0FFF7C0FDC01B4045C1
:10355000F5D90320BDE8F081911E01291B6802D82E
:1035600013F0007FDCE713F0020FD9E7022B0AD13A
:10357000A36803F00C03082B8DD0FFF7A7FDC01B39
:103580004045F5D9E5E7032B0FD1A36803F00C0301
:103590000C2B80D0FFF79AFDC01B4045F5D9D8E72A
:1035A000FFF794FDC01B4045D3D8A36813F00C0F60
:1035B000F6D170E7F2B21A701B6803F00F039E4257
:1035C0009CD16FE70449E8688B6823F4E053034318
:1035D0008B606BE7003C024000380240B2D5000827
:1035E000B8010020084B4FF4E0529B6892FAA2F217
:1035F000B2FA82F203F4E053D340044AD35C044AA3
:103600001068D840704700BF00380240C2D500089B
:10361000B8010020084B4FF460429B6892FAA2F276
:10362000B2FA82F203F46043D340044AD35C044A02
:103630001068D840704700BF00380240C2D500086B
:10364000B80100200F2303600B4B9A6802F00302BD
:1036500042609A6802F0F00282609A6802F4E052D6
:10366000C2609B68DB0803F4E0530361034B1B68F3
:1036700003F00F030B60704700380240003C02402B
:1036800003685A6822F0E0025A604268B2F5827F0D
:103690000AD18268B2F5004F02D0B2F5806F03D133
:1036A0001A6822F040021A60826AB2F5005F09D1FE
:1036B0001A6822F400521204120C1A601A6842F4BA
:1036C00000521A60012380F85130002380F85030F6
:1036D0000320704770B505460C46164629688B686E
:1036E0009B0701D5002070BD621CF8D024B9284684
:1036F000BDE87040FFF7C4BFFFF7E8FC801B8442C1
:10370000ECD8F4E72DE9F041DDF8188005460F46C6
:1037100016461C462B6898683840B04202D10020FB
:10372000BDE8F081621CF6D024B92846BDE8F0411E
:10373000FFF7A6BFFFF7CAFCA0EB08008442E9D858
:10374000F3E713B50B460092802100220446FFF7F1
:10375000D9FF20B1636D43F020036365032002B0FD
:1037600010BD704738B5044600283BD090F8513062
:1037700003F0FF021BB980F85020FFF7F2FF216829
:10378000A568A06AA269022384F851300B6823F06F
:1037900040030B6063682B43E5682B4325692B438B
:1037A00065692B43E5692B43256A2B43034302F4E8
:1037B00000752B430B60120C636AB0F5005F02F0DA
:1037C000040242EA030208BFE36A4A6008BF0B61D1
:1037D000CB6923F40063CB6100200123606584F88A
:1037E000513038BD012038BD2DE9F3411E4690F817
:1037F0005030012B04460D46904600F0BA8001235C
:1038000080F85030FFF762FC074694F85100C0B2D0
:10381000012840F0AC80002D5FD0B8F1000F5CD0E3
:10382000032384F8513000236365A363A4F8368032
:10383000A387E38763642364A36822682563B3F5E1
:10384000004F08BF1368A4F8348004BF43F48043DA
:103850001360A36AB3F5005F09D1136823F4005322
:103860001B041B0C1360136843F4005313601368AC
:103870005B065EBF136843F040031360E368B3F573
:10388000006F63683AD11BB1E38E9BB2012B06D166
:1038900035F8023BD360E38E013B9BB2E386E38EB7
:1038A0009BB283B93A4631462046FFF713FF98B9D9
:1038B0003A4631462046FFF744FF002840D02023F7
:1038C0006365012009E023689A68900703D535F8FD
:1038D000022BDA60DFE74EB90320012384F8513070
:1038E000002384F8503002B0BDE8F081711CD6D0BE
:1038F000FFF7ECFBC01B8642D1D8EDE71BB1E38E8E
:103900009BB2012B06D115F8013B1373E38E013BEB
:103910009BB2E386E38E9BB2002BC3D023689A68E8
:10392000920703D515F8012B1A73EFE7002ED3D0B9
:10393000731CEFD0FFF7CAFBC01B8642EAD8CBE767
:10394000A36833B901932368DA6801929B680193F5
:10395000019BA36AB3F5005F01BF2268136843F4BB
:1039600080531360606D003018BF0120B5E702205E
:10397000B3E70220B7E72DE9F04385B0994600236D
:10398000ADF80A3090F850300C9E012B04460D46DD
:10399000904600F04581012380F85030FFF796FBF8
:1039A00094F851306168DBB2012B07460AD0B1F5BB
:1039B000827F40F03381A268002A40F02F81042BDF
:1039C00040F02C81002D00F01B81B8F1000F00F0B9
:1039D0001781B9F1000F00F0138194F85130C4F849
:1039E0003880012B04BF052384F851300023636520
:1039F00023646364A36AA4F83E90B3F5005FA4F85F
:103A00003C902563A4F83690A4F83490236809D13B
:103A10001A6822F400521204120C1A601A6842F456
:103A200000521A601A6850065EBF1A6842F04002DF
:103A30001A60E268B2F5006F6BD119B1E28E92B2F2
:103A4000012A06D135F8022BDA60E38E013B9BB2E6
:103A5000E3864FF00109E38E9BB2B3B9E38F9BB2CB
:103A60009BB9A36AB3F5005F40F0AE8001220097D6
:103A7000334611462046FFF745FE002800F09D80A2
:103A8000636D43F00203636535E0B9F1000F1BD0AD
:103A9000E38E9BB2C3B122689368990714D535F8B9
:103AA000023BD360E38E013B9BB2E386E38E1FFAB9
:103AB00083F9B9F1000F29D1A16AB1F5005F03D1F3
:103AC000116841F480511160E38F9BB263B12368A8
:103AD0009A68D20708D5DB6828F8023BE38F013BE0
:103AE0009BB2E3874FF00109701CB4D0FFF7EEFAE8
:103AF000C01B8642AFD80325012384F85130002330
:103B000084F85030284605B0BDE8F0834FF0000936
:103B1000DAE719B1E28E92B2012A06D115F8012B2B
:103B20001A73E38E013B9BB2E3864FF00109E38EEB
:103B30009BB21BB9E38F9BB2002B92D0B9F1000F5F
:103B400021D0E38E9BB2F3B123689A6891071AD50E
:103B500029781973E38E013B9BB2E386E38E1FFA4B
:103B600083F96A1CB9F1000F0AD1A16AB1F5005FAF
:103B700004D12068016841F480510160154602E0DB
:103B800015464FF00009E38F9BB273B123689A6822
:103B9000D2070AD5DB6888F80030E38F013B9BB27F
:103BA000E38708F101084FF00109731CBFD0FFF74C
:103BB0008DFAC01B8642BAD89DE72368DB689BB2AA
:103BC000ADF80A30BDF80A302268956815F0100586
:103BD00007D0636D43F0020363654FF6EF739360A4
:103BE00001253A4631462046FFF774FD002882D170
:103BF0003A4631462046FFF7A4FD18B120236365FD
:103C0000012579E7A368002B7FF476AF039323683F
:103C1000DA6803929B680393039B6DE702256BE7C9
:103C200002256FE72DE9FF411D460023ADF80E3058
:103C30004368B3F5827F04460E4690460CD18368F4
:103C400053B9042380F85130134600950A46FFF714
:103C500092FE04B0BDE8F08194F85030012B00F0E2
:103C6000CD80012384F85030FFF730FA074694F8EE
:103C70005100C0B2012840F0BF80002E7DD0B8F1C5
:103C8000000F7AD0042384F8513000236365236346
:103C9000A4F83E80A386E38623646364A36AA663D4
:103CA000B3F5005FA4F83C8023680DD11A6822F4B4
:103CB00000521204120C1A601A6842F400521A6080
:103CC000E28F013A92B2E287A268B2F5004F02BFDA
:103CD0001A6822F480421A601A6851065EBF1A6898
:103CE00042F040021A60E368CBB1E38F9BB2D3B1DC
:103CF00023689A68D0074FD5DB6826F8023BE38F2C
:103D0000013B9BB2E387F0E723689A68D20732D57C
:103D10001B7B06F8013BE38F013B9BB2E387E38FFC
:103D20009BB2002BF0D1A36AB3F5005F45D12268A6
:103D3000136843F480531360012200972B46114609
:103D40002046FFF7DFFCB8B9E368B3F5006F2368DE
:103D50004FF001020BBFDB681B7B33803370009791
:103D60002B4611462046FFF7CDFCF8B1636D43F0BA
:103D70000203636500E03DB90320012384F851305C
:103D8000002384F8503064E76B1CC8D0FFF79EF91D
:103D9000C01B8542C3D8EFE7002DEDD0691CA4D02D
:103DA000FFF794F9C01B85429FD8E5E72368DB68DD
:103DB0009BB2ADF80E30BDF80E306368B3F5827F6C
:103DC00023680AD1A268B2F5004F02D0B2F5806F25
:103DD00003D11A6822F040021A609A68D20606D50A
:103DE000626D42F0020262654FF6EF729A60606D9A
:103DF000003018BF0120C0E70220BEE7022028E7FC
:103E000070470000224A036890420ED0B0F1804F04
:103E10000BD0A2F57C42904207D002F5806290421E
:103E200003D002F58062904219D14A6823F07003F2
:103E30001343174A904204D1CA6823F440731343D2
:103E400018E0B0F1804FF7D0124A9042F4D002F55A
:103E500080629042F0D002F580629042ECD00E4A2F
:103E60009042E9D002F580629042E5D002F580628E
:103E70009042E1D003608B68C3620B688362044B9D
:103E8000984204BF0B69036301234361704700BF7D
:103E900000000140000400400040014010B504460D
:103EA000A0B190F8393003F0FF021BB980F8382038
:103EB000FFF7A6FF022384F839302068211DFFF7A1
:103EC000A1FF012384F83930002010BD012010BD6E
:103ED000036A10B501248C4023EA04030362036AD9
:103EE0008A401A43026210BD10B5044601220068E0
:103EF000FFF7EEFF2368064A934202BF5A6C42F472
:103F000000425A641A6842F001021A60002010BD93
:103F100000000140FFF7E8BF2DE9F0470668C268DE
:103F20003369C16923F44053134333610446836802
:103F30000069F2680343606922F41642034322F0E9
:103F40000C020B431343F3607369A26923F44073BB
:103F50001343B1F5004F73617A4B7CD19E4203D07D
:103F600003F580639E4244D1FFF754FB192505FBFE
:103F700000F360684FF064094000B3FBF0F3B3FB5B
:103F8000F9F34FEA0318FFF745FB636868435B00EA
:103F9000B0FBF3F7FFF73EFB636868435B00B0FBE1
:103FA000F3F3B3FBF9F309FB1373DB003233B3FB19
:103FB000F9F35B0003F4F877FFF72CFB62686843C2
:103FC0005200B0FBF2FAFFF725FB636868435B0021
:103FD000B0FBF3F3B3FBF9F309FB13A3DB003233BC
:103FE000B3FBF9F303F0070343443B44B360BDE87C
:103FF000F087FFF7F7FA192505FB00F360684FF02B
:1040000064094000B3FBF0F3B3FBF9F34FEA031884
:10401000FFF7E8FA636868435B00B0FBF3F7FFF76C
:10402000E1FA636868435B00B0FBF3F3B3FBF9F3B9
:1040300009FB1373DB003233B3FBF9F35B0003F4CA
:10404000F877FFF7CFFA626868435200B0FBF2FAE4
:10405000FFF7C8FAB9E79E4202D03B4B9E4240D1DF
:10406000FFF7D8FA676819254FF0640905FB00F3DC
:10407000BF00B3FBF7F3B3FBF9F31F01FFF7CAFA75
:10408000636868439B00B0FBF3F8FFF7C3FA63680B
:1040900068439B00B0FBF3F3B3FBF9F309FB138315
:1040A0001B013233B3FBF9F303F0F008FFF7B2FA68
:1040B000626868439200B0FBF2FAFFF7ABFA6368FC
:1040C00068439B00B0FBF3F3B3FBF9F309FB13A3C5
:1040D0001B013233B3FBF9F303F00F0343EA080388
:1040E00083E7FFF77FFA676819254FF0640905FB3E
:1040F00000F3BF00B3FBF7F3B3FBF9F31F01FFF7C6
:1041000071FA636868439B00B0FBF3F8FFF76AFA43
:10411000636868439B00B0FBF3F3B3FBF9F309FB5F
:1041200013831B013233B3FBF9F303F0F008FFF7FD
:1041300059FA626868439200B0FBF2FAFFF752FA4C
:10414000BDE700BF0010014000140140704710B5EA
:10415000044640B390F8393003F0FF021BB980F8F1
:104160003820FFF7F3FF2268242384F83930D3681E
:1041700023F40053D3602046FFF7CEFE23681A696C
:1041800022F490421A615A6922F02A025A61DA68CE
:1041900042F40052DA6000202023E06384F83930D2
:1041A00084F83A3010BD012010BD00000268136889
:1041B00023F0400310B513600446FFF7D3FA10B1A3
:1041C000054801F0E5F8A36823B92268136843F0B5
:1041D0004003136010BD00BF2AD500082DE9F04F41
:1041E000884687B004465849BDF9406040461546A8
:1041F0001F4600F09DFF55498146284600F098FF74
:1042000053490190384600F093FF524982463046A8
:1042100000F08EFF019B83461946484600F06AFF76
:1042200059468146504600F065FF0146484600F079
:1042300061FFE065013004D16A224749474801F037
:1042400095F8474BE26D9A424FF0000348D1029334
:10425000444B5A6C42F480525A645B6C03F48053B2
:104260000293029B232384F858303749404600F0DC
:1042700023FF3649284600F01FFF3549384600F035
:104280001BFF731CA4F86050A4F86280A4F864704B
:10429000A4F8666054D02F49304600F00DFFE36D5E
:1042A000236001354FF4827308BF4FF4004263600E
:1042B0004FF03803E36108BFA2604FF000034FF0F6
:1042C000070218BFA36063612361A362E262E36037
:1042D000236263622046FFF769FF07B0BDE8F08FF5
:1042E00021498A420CD103931E4B1A6C42F480423E
:1042F0001A641B6C03F480430393039B2423B2E7EB
:104300001A498A420CD10493164B1A6C42F40042AB
:104310001A641B6C03F400430493049B3323A2E749
:1043200013498A42A1D105930E4B5A6C42F40052B4
:104330005A645B6C03F400530593059B542392E786
:104340004FF40073A361AAE734D00008ECCF000853
:104350007CD00008C4D0000840D5000897D50008DC
:10436000003001400038024000380040003C00406E
:104370000034014010290CBF4FF400610021012AD4
:10438000C16016D0022A17D0CAB90261426182699F
:10439000B2F5007F05D0002B14BF00224FF480221D
:1043A0008261002B14BF00234FF482734360FFF738
:1043B000FDBE00210161E9E702610022E6E7022279
:1043C00002610122E2E7000070B504460E46FEF7E6
:1043D0001DFE0023022290FBF2F0B042DDB203DDAD
:1043E0000133082B09D10725054B33F81530E3615C
:1043F0002046BDE87040FFF7D9BE90FBF2F0ECE735
:104400001AD5000807B583680191B3F5004F02463D
:1044100007D10A23012201A9FFF7E6F903B05DF8ED
:1044200004FBC36D99688907FCD5D168019AB1F581
:10443000006F0CBF92B2D2B2DA609A68D207FCD594
:10444000D868B1F5006F0CBF80B2C0B2E6E72DE9C5
:10445000F84F0A9E84689DF82CB0964235468046F7
:104460008A4617469946B8BF154694B9AC4202DB56
:104470002846BDE8F88FBC42B4BF1AF8041059466C
:104480004046FFF7BFFFB442B8BF09F8040001344B
:10449000ECE73AB10A23534392B2FFF7A5F900289B
:1044A00018BF0025002EE3D00A237343B2B2494659
:1044B0004046FFF7B7FB002818BF0025D8E77FB5B7
:1044C0000F230193022100234FF4805201A802918F
:1044D000039304920593FEF7CFFFB0FA80F04009F2
:1044E00007B05DF804FB00000F49D1F8883043F4B1
:1044F0007003C1F888300D4B1A68002042F00102A9
:104500001A6098601A6822F0847222F480321A606D
:10451000074A5A601A6822F480221A60D8604FF065
:1045200000638B60704700BF00ED00E00038024080
:104530001030002400B58FB01D4B002100911A6C83
:1045400042F080521A641B6C1A4A03F080530093A5
:10455000009B0191136823F4404343F4004313602C
:10456000136803F440430193019B01230293C8B9EC
:104570004FF480330393022308934FF4800309938D
:1045800008230A934FF4A8730B9304230C9302A8F7
:1045900007230D93FEF7A2FD38B9FFF790FF0FB088
:1045A0005DF804FB4FF4A023E4E70020F7E700BF29
:1045B000003802400070004010B58EB000241A4B45
:1045C00000941A6C42F080521A641B6C174A03F074
:1045D00080530093009B0194136823F4404343F4F9
:1045E000004313601368039403F440430193019B59
:1045F00009940323029301230593102306930A933E
:104600004FF4A8730B93042302220C9302A80723F0
:1046100008920D93FEF762FD18B9FFF750FF0EB038
:1046200010BD2046FBE700BF00380240007000408C
:1046300008B50120FFF77EFF30B9FFF77BFF18B9FF
:10464000FFF7BAFF00B9FEE708BD0000174A184996
:10465000936803F00C03042B10B50DD0082B0DD07C
:10466000144B0B60114B144A9B68C3F30313D25CC9
:104670000B68D3400B6010BD104BF2E754685068D4
:1046800052686302C2F3881200F03F004CBF0B4B2C
:10469000084BB3FBF0F35343044A5268C2F30142A0
:1046A00001325200B3FBF2F3DBE700BF00380240F7
:1046B000B80100200024F400B2D5000800127A00EE
:1046C000054B186830B901221A60044B044A1A607D
:1046D000FDF76EBF704700BF0815002010230020B3
:1046E000000C004008B5044B1B680BB9FFF7E8FF4E
:1046F000024B586A08BD00BF08150020000C00409E
:104700000A4B0B4A1360DA6822F00202DA6058633F
:104710005A6A801A0028DEBF5A6942F002025A61C2
:10472000DA6842F00202DA60704700BF000C004015
:1047300010230020034B044A1360DA6822F00202BF
:10474000DA607047000C004010230020034A044B3D
:1047500013606FF002021A61704700BF102300203F
:10476000000C00407047000070B50446074B44F849
:10477000043B054600F1440654F8040B08B1FEF76B
:1047800035F9B442F8D1284670BD00BFD4D5000831
:1047900010B50446FFF7E8FF2046FEF727F920464C
:1047A00010BD00002DE9F04188B00546ADF8043099
:1047B000BDF93830ADF80630BDF93C30ADF8083001
:1047C000BDF94030ADF80A30BDF94430ADF80C30D9
:1047D000BDF94830ADF80E30BDF94C30ADF81030B1
:1047E000BDF95030ADF81230BDF95430ADF8143089
:1047F000BDF95830ADF81630BDF95C30ADF8183061
:10480000BDF96030ADF81A30BDF964301948ADF823
:104810001C300024BDF968302860ADF80010ADF8F8
:104820000220ADF81E306C642F1D3DF91480B8F1E4
:10483000FF3F1DD01C20FEF7C9F8002106461C22B0
:1048400001F074FF4146304600F028FCB8F1FF3F0C
:1048500047F8046B05D0012303FA04F26B6C134391
:104860006B640134102CE0D1284608B0BDE8F0811B
:104870000026EBE7D4D5000870B50446054654F889
:10488000043B9B680E469847002354F8040B48B13C
:1048900046FA03F212F0010F026812BF8168C16884
:1048A00012040A600133102BEFD12B682846DB6815
:1048B000BDE87040184710B50446FFF7DDFF2046FD
:1048C00010BD704738B504460D4600F07DFD294601
:1048D000201DFDF757FCBDE8384000F0A1BD0000E9
:1048E00010B5084B044640F8203BFDF70BFE04F1E1
:1048F0004000FBF721FE04F13000FBF71DFE2046CF
:1049000010BD00BF48D6000810B50446FFF7E8FF09
:104910002046FEF76BF8204610BD884238B50446A5
:104920000D460AD0FBF708FE3CB1EB681BB15B6893
:10493000294620469847EB68E360204638BD0000D2
:104940002DE9F04305461F4B45F8043B044685B06E
:104950000E4604F120071C220021284601F0E6FE45
:1049600010220021384601F0E1FE0023E363E364F6
:104970006946DFF85890DFF85880CDF8009004F1D0
:104980003000CDF80C80FFF7C8FF6846FBF7D4FD78
:10499000694604F14000CDF80090CDF80C80FFF797
:1049A000BCFF6846FBF7C8FD2346074A3146384638
:1049B000FDF7E6FC2846314600F05DFB204605B0D9
:1049C000BDE8F08348D60008494A0008C3480008FB
:1049D00018CF00087FB50E46044600F0F5FCF568D8
:1049E00004F1300020345DB13146FFF796FF01221B
:1049F00001212046FDF74CFC00F012FD04B070BD13
:104A0000054B00936946054B0393FFF786FF684605
:104A1000FBF792FD2A46EBE7C348000818CF0008D1
:104A2000C36810B504462BB940F20E22044905486C
:104A300000F09CFCE36820461B68BDE81040184766
:104A4000E4D5000839D60008012908B502D00229AA
:104A500004D008BD3030FFF7E3FF08BD4030FAE76F
:104A600003681B69184703689B69184703689B6ABA
:104A700018474FF0FF30704711207047704770475C
:104A8000A0F1BC00FFF7FBBFA0F1BC00FFF7F7BF30
:104A900000F058BAA0F1BC00FFF7FABF00F055BA19
:104AA000A0F1BC00FFF7FABF38B504461D46049BD1
:104AB00000F052FA294604F1BC0000F035FD064B27
:104AC00003F10802226003F128028433C4F8BC20F9
:104AD000C4F8C030204638BD50D6000870B5D0E9C3
:104AE0000823D0E90245064612196B4100F0A6F9E9
:104AF000736B06F128042BB940F20E2204490548D5
:104B000000F034FC736B20461B68BDE8704018470A
:104B1000E4D5000839D60008D0B5044616461F462D
:104B200000F052FC204600F093F9C4E90867A06940
:104B300000F0CAFB321847EB0103204600F07EF973
:104B4000BDE8D04000F06CBC7FB5064606F12804F5
:104B500000F03AFC6D46304600F07AF90023AC4292
:104B600003930BD02046FBF7E7FC3CB1039B1BB142
:104B70005B68694620469847039B73632846FBF7AA
:104B8000DBFC00F04DFC04B070BD10B480B11468C3
:104B900053680CB9DA070BD513F0010F4FEA630322
:104BA0001CBFC2581459184423465DF8044B1847DB
:104BB0005DF8044B70470000064B19681A1D01B9D7
:104BC0001A601B68934204D05B220349034800F03B
:104BD000CDBB7047701500202CD3000885D300088A
:104BE00070B50A4D2B68834204460ED0061DD0F8DE
:104BF000D020D0F8CC1000233046FFF7BBFBD4F810
:104C0000D4103046FFF7E0FB2C6070BD7815002013
:104C1000036870B59B6804460D46164698470C4BD2
:104C2000C4F8CC501B68C4F8D0609C420BD1002360
:104C300032462946201DFFF79DFB23682046DB688E
:104C4000BDE8704018472046FFF7CAFFF5E700BFF0
:104C500078150020036870B59B6804460D46984798
:104C6000094BC4F8D4501B689C4209D12946201D29
:104C7000FFF7AAFB23682046DB68BDE870401847B1
:104C80002046FFF7ADFFF5E77815002038B503683B
:104C900004469B680D4698472046FFF7A1FF29462A
:104CA000201DFFF7AFFB23680546DB6820469847C9
:104CB000284638BDF7B51F46036804469B680D4675
:104CC000164698472046FFF78BFF94F8D83001939B
:104CD000089B009329463B463246201DFFF7B7FB51
:104CE00023680546DB6820469847284603B0F0BD98
:104CF0002DE9F04305469946244B45F8043B04460C
:104D000085B00F46904600219022284601F00EFD06
:104D1000002204AB0292039213E9030004F1980607
:104D20001B4B86E80300C4F8A03048F20703C4F820
:104D3000A430184BC4F8AC20C4F8A840C4F8B06044
:104D4000C4F8B430BFF36F8FBFF34F8F0823C4F89C
:104D5000CC30114BC4F8D430FF2384F8D830BDF9DF
:104D60003030C4F8C42084F8C820C4F8D0200093A0
:104D700042464B4639462846FFF730FA2046FFF7B1
:104D80002FFF204605B0BDE8F08300BFF8D600082D
:104D900001A090E88B4B000840420F0038B5044654
:104DA00048B15830A04206D0A0F12C051438FBF7CA
:104DB000BBFB2846F6E7204638BD000070B50E4C18
:104DC0002046002528263246294640F8045B01F09B
:104DD000ADFC3246294604F13000E56201F0A6FC44
:104DE000A5652046E565054A84F860500449BDE89C
:104DF0007040FDF7BBBD00BF0C15002098010020DE
:104E00009D4D000803689B6818470000094B10B5CA
:104E1000002203600023C0E90223002303614361F1
:104E2000044600F03FF90449A06100F0CBF92046A8
:104E300010BD00BF18D70008054E000807B5009048
:104E400000F10801806900F0FAF903B05DF804FB95
:104E500000F10801806900F01CBA000010B5034B96
:104E600003600446FFF7F4FF204610BD18D7000882
:104E700010B5044600F0A8FAA06900F025FA002257
:104E80000023C4E90201C4E90423BDE8104000F096
:104E9000C7BA002310B5002203600023C0E9022333
:104EA000C0E90423044600F0FDF8A0612046FFF7A6
:104EB000DFFF204610BD70477047704710B480B1C7
:104EC000146853680CB9DA070BD513F0010F4FEAD9
:104ED00063031CBFC2581459184423465DF8044BA1
:104EE00018475DF8044B7047090170B5441801F18B
:104EF0009805D4F8A43005442BB940F20E22054998
:104F0000054800F033FAD4F8A43028461B68BDE801
:104F100070401847E4D5000839D6000870B505463A
:104F2000044655F84C3B0E461B68984728463146C8
:104F3000FEF738F82368C4F8B86020465B68BDE81F
:104F4000704018474C30FEF73DB810B54C300C4659
:104F5000FEF74AF8204610BD2DE9F04387B0002542
:104F60009146009502460195044688461F469DE8F5
:104F70000300274B42F8083B264B82E803002361DD
:104F800048F207036361244BE561A4612262636216
:104F9000BFF36F8FBFF34F8F04F14C064C22656354
:104FA000656484F8485084F84950304601F0BEFBEF
:104FB00002A9C4F8A450C4F8B450C4F8B870174D8E
:104FC000174F029704F198000595FFF7A6FC02A879
:104FD000FBF7B2FA02A904F1A80002970595FFF7C2
:104FE0009CFC02A8FBF7A8FA4A4641463046FDF76A
:104FF0002FFFD4F8B8103046FDF7D4FF30462246D4
:105000000849FDF7D3FF204607B0BDE8F08300BF95
:105010002CD7000801A090E8BD4E000818CF00086A
:10502000B74E0008E94E000870B50E460446154616
:10503000FDF788F8013609D020460021FDF7A6F8D3
:1050400029462046BDE87040FDF79CB870BD38B5D4
:1050500004460D4603685AB1826813602046012158
:10506000FDF794F829462046BDE83840FDF78AB898
:10507000C2681B04F1E70022FFF7D6BF70B50E46E9
:1050800004461546FDF75EF8013606D02A4620464E
:105090000021BDE87040FFF7DABF70BD0022FFF7C6
:1050A000EDBF0000004870473CD70008014800F001
:1050B000A4B800BF3CD7000810B5044601300DD19C
:1050C00010BD9C4209D120468968FDF793FD20461A
:1050D0000021BDE81040FDF725BE0C31B1F90030CC
:1050E0005A1CEED10248BDE8104000F051B900BF93
:1050F00089D70008884208B508D0431C06D0013182
:1051000006D0044800F044F94FF0FF31084608BDCE
:105110000146FBE758D70008B1F900305A1C01D10D
:1051200018467047834201D1486870470C31F3E755
:10513000421C10B5044607D0FFF7EEFF431C04469F
:1051400002D1024800F024F9204610BD69D70008BA
:105150000368D0B544685B68D4E9026798470022C9
:10516000B04242EA00023B4602D2003247F101035C
:10517000C4E90223D0BD2DE970430646FFF7E8FFDE
:1051800073685A68DAB1D3E90245D2E90001A9424D
:1051900008BFA04211D3B0EB040861EB0509B9F1D7
:1051A000000F08BFB8F1E04F09D2001B9A683368BE
:1051B00010441B69BDE8704318470020F6E74FF024
:1051C000E040F3E7436870B51D7C04460E468DB998
:1051D00003681B6898476368002000210122C3E927
:1051E00002011D6020465D601A74FFF7B1FF204682
:1051F000FFF7C1FF63681E6070BD036870B5DB68B0
:105200000446984763685B68A3B12046FFF7A0FF98
:1052100065686E68D5E90201D6E90023994208BFA6
:10522000904207D3F3686B602B68002BEAD0B0681C
:105230009847E7E72046BDE87040FFF79CBF2DE99F
:10524000F84305460C4616461F46DDF8208000F060
:10525000BBF82846FFF77CFF6968C4F80880C4E9FA
:1052600000674B6800224BB9E36082B94C60284666
:10527000FFF781FFBDE8F84300F0D2B8D3E9008919
:105280004F4508BF4645EFD31A46DB68EBE7D460CD
:10529000EDE738B505460C4600F096F86A685368A5
:1052A000A34209D1DB6853602846FFF764FFBDE8DD
:1052B000384000F0B5B81346002BF8D0DA689442B5
:1052C000F9D1E268DA60F2E710B50446FFF740FF73
:1052D0006368D3E9020110BD10B500230360436089
:1052E0000A782F2A04460DD14A785AB1481C20600A
:1052F000194623681A782F2A06D10133236000F05B
:10530000D9F96060204610BD002AF8D00133013180
:105310002360EEE700687047406808B520B100F0F0
:1053200078F9431E5842584108BD10B50446FFF7AE
:10533000F3FF10B1606800B1043810BD406808B5D3
:1053400020B100F066F9B0FA80F0400908BD10B550
:105350000446FFF7F3FF10B1606800B1043810BDD8
:105360004068003018BF01207047000070B5044647
:105370000D46164600F028F833462A4621460348D3
:10538000FDF7C0F9BDE87040FDF77CB99AD7000879
:105390000FB413B5084B1A784AB9012405A904982B
:1053A0001C700191FDF784F92046FDF7E1FA02B087
:1053B000BDE8104004B0704798150020EFF310804E
:1053C000C04300F00100704738B5FFF7F7FF05460E
:1053D00072B60E4C236823B980F001030C4ADBB28D
:1053E00013702368013304D143220A490A48FFF7A6
:1053F000BDFF23682BB125B1472206490748FFF7B7
:10540000B5FF23680133236038BD00BF9C15002021
:1054100099150020CBD700081AD8000840D80008FA
:1054200010B50A4C236883B1FFF7C8FF20B158229A
:1054300007490848FFF79AFF2368013B2360236868
:105440001BB9054B1B7803B962B610BD9C15002033
:10545000CBD7000840D800089915002000207047DD
:1054600000207047036801221B6900211847036868
:1054700000221B691146184770477047F8B503684A
:10548000DB6C0E4604468F1898473546BD4207D060
:10549000236815F8011B5B6C204698470130F5D155
:1054A000236820461B6D9847A81BF8BDF8B5036814
:1054B000DB6C0E4604468F1898473546BD4208D02F
:1054C000236820469B6C9847431C02D005F8010BCB
:1054D000F4E7236820461B6D9847A81BF8BD002001
:1054E00070477047002070470020704710B5054B8B
:1054F00003604C33044640F8043F00F0ABF820460C
:1055000010BD00BF5CD80008A0F10400EEE700BFAA
:1055100010B50446FFF7EAFF2046FDF767FA20467C
:1055200010BDA0F10400F3E70F4B10B500220446B4
:1055300040F8043B00F070F80C4B23605C33636070
:10554000002363610A49204600F0EDF8606118B15C
:10555000FDF713FA204610BD00F0E8F80168054891
:10556000FFF716FFF6E700BF58D90008DCD800089F
:10557000B0D80008B3D8000810B5074B03F10802F3
:105580006433044602604360406900F037F9204606
:10559000FFF7ACFF204610BDD4D800080EB477B595
:1055A000036807AD044655F8046BDB6C98476069E7
:1055B000019500F0F5F9019A6069314602F0CAFFE1
:1055C000236805461B6D20469847284603B0BDE872
:1055D000704003B0704738B50446FFF783F80546BE
:1055E000FFF780F8401BA042FAD338BD07EE100A3F
:1055F000DFED047A67EE277AFDEEE77A17EE900A80
:10560000FFF7E9BF002474494FF47A735843FFF75A
:10561000E2BF007B7047000038B504460A4B0360C8
:10562000002343600D46A16002730848FDF7E0F9CE
:1056300045B1074B1A6862601C600448FDF7D8F951
:10564000204638BD6560F8E748D90008A415002059
:10565000A015002010B50F4B036004460E48FDF75F
:10566000C7F9A3682BB10D4A13689C420CD163683B
:1056700013600948FDF7BCF9237B13B9201FFDF720
:10568000CDF9204610BD13465A689442FBD162689A
:105690005A60EEE748D90008A4150020A0150020A4
:1056A00010B50446FFF7D6FF2046FDF79FF92046C8
:1056B00010BD000070B506460C480D46FDF798F980
:1056C0000B4B1C685CB1A06870B12A46314601F0F2
:1056D00025FC48B9A06801F0B3FB854204D103481A
:1056E000FDF786F9204670BD6468EBE7A41500203D
:1056F000A0150020036870B51B6901220021044633
:105700009847051E0DDB236802221B6900212046F5
:1057100098472368064629461B6900222046984779
:105720003546284670BDFDF72BB90000014B1868BF
:10573000704700BFBC01002070B559B105460C464A
:1057400010B1836B002B3CD0636ED80705D5B4F93C
:105750000C302BB90026304670BDA38999053CD585
:105760002146284600F052F8E36A064633B1E16963
:10577000284698470028B8BF4FF0FF36A3891A067D
:1057800022D4216B41B104F14003994202D0284652
:1057900006F0E4FD00232363616C21B1284606F086
:1057A000DDFD0023636400F0D3F9636E0022DB07A4
:1057B000A2810ED5A06D00F0DBFD00F0CFF93046E0
:1057C00070BD00F045F9BFE72169284606F0C6FD27
:1057D000D7E7A06D00F0D0FDECE7A06D00F0CAFDAA
:1057E000B4F90C30002BBBD1666E16F00106B1D1B6
:1057F000A06D00F0C1FD304670BD00BF024B0146F8
:105800001868FFF799BF00BFBC010020B1F90C3048
:105810009AB22DE9F0410D46110780463AD46A68E4
:1058200043F40063002AAB816FDDAC6A002C49D0E1
:1058300000229BB2D8F80060C8F8002013F4805210
:1058400067D02A6D5F0705D569682B6B521A0BB1BB
:10585000EB6BD21A0023E9694046A047441C3CD0B8
:10586000B5F90C302A692A6023F400630022AB8169
:10587000DB046A6047D4296BC8F8006011B305F1F6
:105880004003994202D0404606F068FD002028639C
:10589000BDE8F0812E69AEB12C682E6091070CBF77
:1058A0006B690023A41BAB600AE0234632466F6A93
:1058B000E9694046B8470028A4EB0004064404DD2B
:1058C000002CF2DC0020BDE8F081AB8943F04003FE
:1058D000AB814FF0FF30BDE8F081D8F800401D2CBF
:1058E000F3D8194BE340DB4313F00103EDD1B5F9D5
:1058F0000C206B6022F400632969AB81DA04296013
:10590000B9D5002CB7D12865B5E7EA6B002A8CDC45
:10591000D8E70123E9694046A047431C024602D06C
:10592000AB89AC6A8EE7D8F80030002BF8D01D2B7D
:1059300001D0162B02D1C8F80060C3E7AB8943F051
:105940004003AB81BDE8F0810100402038B50D4631
:10595000044608B1836BBBB1B5F90C0088B16B6E1E
:10596000DB0701D4810517D520462946FFF74EFFF6
:105970006B6EDA07044602D4AB899B0507D5204637
:1059800038BD0446204638BD00F062F8E4E7A86D53
:1059900000F0F2FC204638BDA86D00F0EBFCE3E718
:1059A00020B1054B01461868FFF7D0BF034B0449EF
:1059B000186800F089BC00BFBC0100209CD9000819
:1059C0004D590008014900F07FBC00BF395700085D
:1059D00010B5002304468181C28103604360836067
:1059E0004366036143618361194608225C3000F01D
:1059F0009DFE07480749084A084B2062E46161623E
:105A0000A262E36204F15800BDE8104000F0AEBCB1
:105A1000BD6A0008E16A00081D6B00083D6B0008C4
:105A200070B54A1E682505FB02F50E4605F17401A6
:105A300006F090FC044640B100210C30666005F190
:105A400068022160A06000F071FE204670BD00BFBA
:105A500010B50446124800F08DFCA26BD2B904F5D3
:105A60003B731048C4F8E8320321C4F8E022E06335
:105A7000C4F8E41260680421FFF7AAFF012209219B
:105A8000A068FFF7A5FF02221221E068FFF7A0FF40
:105A90000123A3630248BDE8104000F06DBC00BFC5
:105AA00058230020C559000870B50646264800F066
:105AB00061FC264B1D68AB6B002B33D005F53875A8
:105AC0006B68AC68013B05D528E0013B5A1C04F12A
:105AD000680423D0B4F90C20002AF6D100254FF633
